:060000000A128A110C280F
:10000800FE00030EF1000A08F2000A128A11F72A0C
:100018000A128A110F280A128A1154240A128A1104
:10002800DE000A128A1155240A128A11DF0083138E
:100038002030840048300A128A114C24F901FA0150
:1000480083010A128A117C2983120313D8005130C4
:10005800D3005308D6000130D007FF305007840082
:100068000A128A11A0230A128A11D3005308DC004D
:100078005C080319772925305C0603194F285C08AA
:10008800D300580884005308831380000130D3003C
:100098005308D8072F28D701500884000A128A115C
:1000A800A0230A128A112E3A031D8D280130D3008D
:1000B8005308D007DB01500884000A128A11A023D4
:1000C8000A128A110A128A1133240A128A11031C8D
:1000D800912883120313500884000A128A11A0235E
:1000E8000A128A11D3000A30D4005408F3005B08BE
:1000F8000A128A1122240A128A118312031353073F
:10010800D03ED5005508DB000130D3005308D00796
:100118005F28DB0191285717B32801308312031396
:10012800D007FF30500784000A128A11A0230A1250
:100138008A11DC00D300D4015408003A0319A52819
:100148002F285308003A03197729643A0319B3286A
:100158000D3A0319B3281C3A03198F282F28571B67
:10016800CD285608840083130008D900840A0008A3
:10017800DA000230D3005308D607DA1FD928033033
:10018800D3005308D704D909DA09D90A0319DA0AB6
:10019800D9285608840083130008D900840A000867
:1001A800DA000230D3005308D6075B08031DE428A1
:1001B80059085A04031DE4280130D3005308DB070B
:1001C800DC01DC0A5C08D3005307013E84000A12F4
:1001D8008A11A0230A128A11D4000A128A11A023B4
:1001E8000A128A11D50055085A02031DFD28540821
:1001F8005902031C07290130D3005308DC070530D6
:100208005C06031DE6285B08D300D401D31BD40386
:100218005408803A803C031D132953085C02031CD0
:100228002D29831203135B08D300D401D31BD403F5
:100238005408803AD50080305502031D25295C08F2
:10024800530203182D29831203135C08D3005308A3
:10025800DB00831203135708033903193E292D3095
:10026800D300580884005308831380000130D3005A
:100278005308D807FF30D3005308DB075B0A03197C
:100288002F280A30CB000030CC005B08D30053077E
:10029800013E84000A128A11A0230A128A11F3006F
:1002A8000A128A11A0230A128A11F4005A08F600C9
:1002B8005908F5000A128A11B9220A128A1174081B
:1002C80083120313CE007308CD000A128A116C231F
:1002D8000A128A11831203134B08303ED4005408C3
:1002E800DC005C0834295808840083138001080066
:1002F80083160313061686168701880183120313D3
:10030800870188010A128A1141240A128A1183126C
:10031800031381010A128A110F220A128A11831209
:100328000313071487100B1CD62983120313061E08
:10033800B0295F08803AFF0080307F02031DA6299C
:1003480064305E020318B029013083120313DE07FC
:100358000318DF0A0030DF0783120313861ED4292F
:100368005F08803AFF0080307F02031DBD290130FD
:100378005E02031CD429831203135F08803AFF002E
:1003880080307F02031DCA2965305E020318D42914
:10039800FF3083120313DE070318DF0AFF30DF077D
:1003A8000B109729F601F60A01300A128A11692200
:1003B8000A128A110B3083120313DD005D08D00086
:1003C80020300A128A1128200A128A1120300A12B3
:1003D8008A11CE230A128A11F601F60A02300A128D
:1003E8008A1169220A128A111E3083120313DD0052
:1003F8005D08D0005F08D2005E08D10020300A12E4
:100408008A1128200A128A1120300A128A11CE2352
:100418000A128A11932900300A128A11F0230A124B
:100428008A110630F7003030F600F60B192AF70B60
:10043800192A000003300A128A110A240A128A11A2
:10044800C730F600272AF60B262A2A2A2B2A033039
:100458000A128A110A240A128A110330F700DA30C4
:10046800F600F60B352AF70B352A000003300A127E
:100478008A110A240A128A1102300A128A110A24DD
:100488000A128A1102300A128A110A240A128A11DF
:1004980008300A128A110A240A128A1100300A1234
:1004A8008A110A240A128A110C300A128A110A24A3
:1004B8000A128A1100300A128A110A240A128A11B1
:1004C80006300A128A110A24080083120313C8008E
:1004D8004803031D922A76087F3EF7007708CB0071
:1004E8004B08F70004300310F70CFF3E031D772A72
:1004F8007708F8007808C9004B080F39F700770823
:10050800CA0049080A128A110A240A128A11831297
:1005180003134A080A128A110A24080002304806FE
:10052800031D08007608BF3EF7007708CB004B088C
:10053800F70004300310F70CFF3E031D9E2A7708CE
:10054800F8007808C9004B080F39F7007708CA0087
:1005580049080A128A110A240A128A1183120313FB
:100568004A080A128A110A24080083120313C901CF
:10057800CA01730874040319F22AC801C80AF41BD3
:10058800D12A01300310F30DF40DFF3E031DC62AD6
:100598000130F7007708C807C32A01300310C90DD6
:1005A800CA0DFF3E031DD22A74087602031DDE2AF7
:1005B80073087502031CE72A7308F5027408031C04
:1005C800F603F602491401300310F40CF30CFF3E55
:1005D800031DE82A0130C802031DD12A4A08F40085
:1005E8004908F30008008B130B1D292B0130F9076C
:1005F8000318FA0A0030FA07653079067A04031DF1
:10060800072BF901FA017A08803AF00083120313E4
:100618005F08803A7002031D132B5E0879020318E5
:10062800182B831203138715831203135F08803A6C
:10063800F0007A08803A7002031D242B79085E02C4
:100648000318292B8312031387118B170B1183129D
:100658000313810172088A00710E8300FE0E7E0E5C
:100668000900F70077080F39F4007408F5007708D7
:10067800F039F4007408F60083120313081576089D
:10068800F40004300310F40CFF3E031D462B7408DD
:100698000A128A11F0230A128A1183120313881589
:1006A800552B562B572B582B83120313881175087B
:1006B8000A128A11F0230A128A1183120313881569
:1006C800652B662B672B682B831203138811080090
:1006D800831203134B084C0403199B2BCF01CF0A39
:1006E800CC1B822B01300310CB0DCC0DFF3E031D1C
:1006F800772B0130F8007808CF07742B4C084E028E
:10070800031D882B4B084D02031C902B4B08CD0270
:100718004C08031CCE03CE0201300310CC0CCB0CCA
:10072800FF3E031D912B0130CF02031D822B4E0883
:10073800CC004D08CB00080003308A000408840A66
:1007480082070034013400340A340034643400343D
:10075800E834033410342734503477346D3420347B
:1007680044347534743479342034433479346334FC
:100778006C3465343D3420342534643400342034FA
:100788002034203420342034203425342E3433349B
:100798007534003483120313CA00C801C90148081C
:1007A8004A07F80078088400831300080319080032
:1007B80048084A07F8007808840000080A128A11D5
:1007C80035230A128A11013083120313C80703184C
:1007D800C90A0030C907D32BF300731CF72B831207
:1007E80003130816FA2B831203130812F31CFE2BAB
:1007F8008816FF2B8812731D032C0817042C081366
:10080800F31D082C8817080088130800F5008312C8
:100818000313081175080A128A11F0230A128A11A3
:100828008312031388159F30F4001A2CF40B192C2B
:100838001D2C1E2C8312031388110800F600F501E5
:10084800761C2A2C7308F4007408F5070310F30DBE
:100858000310F60C7608031D242C75080800F40014
:10086800F3013A30740203183F2C30307402031C31
:100878003F2CF301F30A730C08008B170B178B1628
:1008880083160313811281110111811401140800C8
:1008980064008001840A04060319003404064D2C00
:0408A80032340034B2
:02400E00F93F78
:00000001FF
